:020000040800F2
:1000000000000220D92500080D2600080D26000852
:100010000D2600080D2600080D260008000000002F
:100020000000000000000000000000000D26000895
:100030000D260008000000000D2600080D2600080F
:100040000D2600080D2600080D2600080D260008C4
:100050000D2600080D2600080D2600080D260008B4
:100060000D2600080D2600080D2600080D260008A4
:100070000D2600080D2600080D2600080D26000894
:100080000D2600080D2600080D260008850800082A
:10009000890800080D260008790800080D260008C8
:1000A0000D2600080D2600080D2600080D26000864
:1000B0000D2600080D2600080D2600080D26000854
:1000C0000D2600080D2600080D2600080D26000844
:1000D0000D2600080D2600080D2600080D26000834
:1000E0000D2600080D2600080D2600080D26000824
:1000F0000D2600080D2600080D2600080D26000814
:100100000D2600080D2600080D2600080D26000803
:100110000D2600080D2600080D2600080D260008F3
:100120000D2600080D2600080D2600080D260008E3
:100130000D260008000000000000000099080008DB
:100140009D0800080D2600088D0800080D260008EF
:100150000D2600080D2600080D2600080D260008B3
:100160000D2600080D2600080D2600080D260008A3
:100170000D2600080D2600080D26000800000000CE
:10018000000000000D260008000000000000000034
:100190000D26000800000000000000000D260008E9
:1001A0000000000000000000000000000D26000814
:1001B0000D2600080D2600080D2600080D26000853
:1001C0000D26000810B5054C237833B9044B13B144
:1001D0000448AFF300800123237010BDB403002056
:1001E00000000000585300080C4B43B10C480D4967
:1001F00010B5AFF300800C48036823B910BD0A485E
:10020000036833B97047094B002BF7D0BDE81040A5
:100210001847064B002BF5D0184700BF0000000020
:1002200058530008B8030020B0030020000000006D
:1002300008B5084CA36822681A604FF07E5000F0A1
:10024000D9F82368E2681B0413604FF07E5000F079
:10025000D1F8EFE7D003002010B5064C002120466E
:100260001C2202F06AFF20460521BDE8104000F084
:100270003BB800BFD00300200748084A08B5121A4F
:10028000002102F05AFF02F054F902F01FFF02F0C1
:1002900057F902F093F900BFB4030020580800207A
:1002A00038B504460D4603685AB18268136020468B
:1002B000012100F033FA29462046BDE8384000F01D
:1002C00029BAC2681B04F1E770B50E46044615460C
:1002D00000F000FA013606D02A4620460021BDE88B
:1002E0007040FFF7DDBF70BD0022FFF7EDBF0000DB
:1002F000014800F003B800BFFC4E0008036870B569
:10030000DB680446984763685A6823681AB99B6893
:10031000BDE8704018475B68156898476368281AFD
:1003200000285A6807DC916859601B68002BEAD0E6
:1003300050689847E7E7236810681B69BDE870407C
:100340001847000010B5044601300DD110BD9C4285
:1003500009D12046896800F007FB20460021BDE84E
:10036000104000F085BB0C31B1F900305A1CEED1C1
:100370000248BDE8104000F06DB800BF494F0008CA
:10038000884208B508D0431C06D0013106D0044885
:1003900000F060F84FF0FF31084608BD0146FBE76A
:1003A000184F0008B1F900305A1C01D118467047A7
:1003B000834201D1486870470C31F3E7421C10B505
:1003C000044607D0FFF7EEFF431C044602D1024863
:1003D00000F040F8204610BD294F000838B504460B
:1003E00000F070FA054600F06DFA401BA042FAD307
:1003F00038BD000007EE100ADFED047A67EE277AB9
:10040000FDEEE77A17EE900AFFF7E8BF0024744983
:100410004FF47A735843FFF7E1BFEFF31080C04306
:1004200000F001007047000008B5FFF7F6FF72B654
:10043000064B1A6822B980F00100054AC0B210705C
:100440001A681A6801321A6008BD00BFF80300205C
:10045000F40300200FB4012008B502F0AFF800B596
:1004600089B0FFF7E1FF052101A8FFF73DFF039BDE
:10047000019A1A609620FFF7CBFF019B049A1B0498
:1004800013609620FFF7C4FFF1E7000070B5134C2E
:1004900023681A69950707D5DA68900704D56FF0C5
:1004A00002021A61FFF724FF23681A69510713D566
:1004B000DA68520710D56FF00402094E1A615D6ABE
:1004C0003368EB1AB3F57A7F06D300F067FF236831
:1004D00005F57A729A63356070BD00BFC8070020C9
:1004E000FC03002030B589B001A903A801F0E0F9B0
:1004F00001F0AEF900230293244B01901A6C244CB6
:1005000042F008021A641A6C02F008020292029A7F
:100510001A6A42F008021A621A6A22F008021A6283
:10052000069AA3F50B3323604FF0FF33E360194BBA
:100530004ABBB0FBF3F00138002560601448256128
:10054000A560656100F0F4FD1349322000F06AFDFA
:10055000124B0F484FF480225A60294600F028FEC3
:1005600004210B4800F024FE23680D4A596A1160EB
:10057000126802F57A729A63DA68284642F0040239
:10058000DA6009B030BD4000D3E700BF0038024058
:10059000C807002040420F008D04000800E100E081
:1005A000FC03002000B5002389B007286FD8DFE8DE
:1005B00000F00413202D3A4754610093364B37481E
:1005C0001A6B42F001021A631B6B03F001030093E4
:1005D000009B09B05DF804FB01932F4B30481A6B68
:1005E00042F002021A631B6B03F002030193019BAA
:1005F000EFE70293284B2B481A6B42F004021A6370
:100600001B6B03F004030293029BE2E70393224B6C
:1006100025481A6B42F008021A631B6B03F00803AB
:100620000393039BD5E704931B4B20481A6B42F0BE
:1006300010021A631B6B03F010030493049BC8E7BA
:100640000593154B1A481A6B42F020021A631B6B74
:1006500003F020030593059BBBE706930E4B15485B
:100660001A6B42F040021A631B6B03F040030693BF
:10067000069BAEE70793084B0F481A6B42F08002C7
:100680001A631B6B03F080030793079BA1E70B48DA
:10069000FFF7E0FE00209CE7003802400000024027
:1006A0000004024000080240000C0240001002401A
:1006B0000014024000180240001C02405A4F00087B
:1006C00010B50021044604F00F0400F04DF901209C
:1006D000A04010BD70B504464B1C0E46218216D0BA
:1006E000C1F30310FFF75EFF05463046FFF7E8FF52
:1006F000238A074A656103F00F03206052F8233014
:10070000A36105F1100318356360A560E56070BD55
:100710007C4F0008B0F9100000F0AAB910B5836949
:10072000446971B9216893FAA3F2B2FA82F2032004
:10073000520000FA02F221EA020293FAA3F32260C5
:1007400010BD226893FAA3F1B1FA81F193FAA3F3F1
:100750000320490000FA01F1B3FA83F322EA01020F
:100760005B00012101FA03F31343236010BD000075
:1007700043692DE9F0413A4C0D46D90720602CD54C
:100780008168DFF8E8E08268364F8368364E01EA18
:100790000E01714502EA070204BF4FF0010EC0F8D6
:1007A00008E0BA4203EA060304BF4FF4807787608B
:1007B000B34204BF4FF4803686602C48814205D096
:1007C00028498A4202D0284A934206D1284B294A16
:1007D0001B6852F82500012198472368DA685B6995
:1007E000920708D09F0706D5214B224A1B6852F872
:1007F000250000219847236899695A695B698E072B
:100800000AD5900508D5190406D5194B194A1B6855
:1008100052F8250005219847226897695669526960
:1008200017F0040706F4806609D046B1120406D515
:100830000F4B104A1B6852F8250007219847236880
:100840005B695FB156B11B0408D5094B094A1B68A7
:1008500052F825000221BDE8F0411847BDE8F081BB
:10086000000400200003000800000310030000043F
:10087000480400204004002000210148FFF778BF11
:1008800000640040FFF7F8BFFFF7F6BF0121014801
:10089000FFF76EBF00680040FFF7F8BFFFF7F6BF35
:1008A000054B186830B901221A60044B044A1A60DB
:1008B000FFF718BE704700BF4C040020C807002097
:1008C000000C004008B5044B1B680BB9FFF7E8FFAC
:1008D000024B586A08BD00BF4C040020000C0040C9
:1008E000044B054A13605863DA6842F00202DA608A
:1008F000704700BF000C0040C8070020034B044AAB
:100900001360DA6822F00202DA607047000C0040DF
:10091000C8070020034A044B13606FF002021A61FB
:10092000704700BFC8070020000C004030B5C36806
:1009300091FAA1F4B4FA84F491FAA1F10325B1FA81
:1009400081F1640005FA04F4490023EA040302FA81
:1009500001F11943C16030BD012A02D0022A18BF3B
:100960000022FFF7E3BF00002DE9F0413F4B00F00C
:100970000F08C0F3031053F828400E4601F0070596
:10098000FFF710FE836894FAA4F1B1FA81F194FAAA
:10099000A4F20327490007FA01F1B2FA82F223EA2E
:1009A00001035200022101FA02F213438D428360D7
:1009B00028D0BD4241D0012D3FD00023026894FAD7
:1009C000A4F7B7FA87F794FAA4F14FF0030EB1FA3F
:1009D00081F17F000EFA07F7490022EA07028B40F7
:1009E000013D1343012D036005D8436832074CBF16
:1009F0002343A3434360C6F301122146BDE8F041FF
:100A0000FFF7AABFB8F1070FC6F3032717D9426A49
:100A1000230A93FAA3F1B1FA81F193FAA3F34FF009
:100A20000F0EB3FA83F389000EFA01F19B0022EA5C
:100A3000010207FA03F3134343622B46BEE7026A3F
:100A400094FAA4F3B3FA83F394FAA4F14FF00F0EDF
:100A5000B1FA81F19B000EFA03F3890022EA030246
:100A600007FA01F313430362E7E700BF7C4F000876
:100A700038B500F00F02194BC0F3031053F82240B1
:100A80000D46FFF78FFD04FB04F2016802EB420301
:100A90000B40B3FBF2F3013B012B05D8EB1E022BFD
:100AA000436809D823434360032D08D1012221461E
:100AB000BDE83840FFF750BF23EA04034360012D2F
:100AC000F4D0052D01D0022D01D10222EFE72146FD
:100AD0000022BDE83840FFF729BF00BF7C4F000867
:100AE00042681649920110B58B1804688C508268D0
:100AF0005A60C2689A600269DA6042691A61026AE1
:100B00009A610022DA61DA849A84DA859A85B0F9EA
:100B10001A2001320AD108225A61184600F067FDF6
:100B200058B10748BDE81040FFF794BCB0F9182051
:100B300001320CBF04220C22EEE710BD5404002049
:100B4000BC4F0008F0B50E4687B004466D493046EC
:100B50001546FFF733FC6C4907462846FFF72EFC85
:100B600001463846FFF70CFC684B2060984200F0C5
:100B70009C8036D8A3F50063984269D003F5806362
:100B800098427CD05F493046FFF7DCFB5E4928463F
:100B9000FFF7D8FB721C03D001213046FFF768FF36
:100BA0006B1C03D001212846FFF762FF4FF4165358
:100BB000A3600023E360236163612362268365836E
:100BC0002046FFF78DFF2268514B9A4207D1514BC7
:100BD000514801221A6021464C2202F0A3FA07B0C4
:100BE000F0BD4E4B98421DD003F58063984272D001
:100BF000A3F544439842C5D1494B1A6A42F4801286
:100C00001A621A6A22F480121A62002204921A6C82
:100C100042F480121A641B6C03F480130493049B47
:100C200004232AE03E4B5A6A42F010025A625A6A82
:100C3000002122F010025A6200915A6C42F0100218
:100C40005A645B6C616003F010030093009B99E7AA
:100C5000334B1A6A42F400321A621A6A22F40032E2
:100C60001A62002201921A6C42F400321A641B6C60
:100C700003F400330193019B0123636082E7284B57
:100C80001A6A42F480221A621A6A22F480221A62D4
:100C9000002202921A6C42F480221A641B6C03F444
:100CA00080230293029B0223E7E71D4B1A6A42F45A
:100CB00000221A621A6A22F400221A6200220392A7
:100CC0001A6C42F400221A641B6C03F40023039391
:100CD000039B0323D1E7124B5A6A42F020025A6267
:100CE0005A6A22F020025A62002205925A6C42F09F
:100CF00020025A645B6C03F020030593059B0523D7
:100D0000BBE700BF40500008D44F0008004C004033
:100D1000004400405004002004080020001001405E
:100D2000003802408160FFF7DBBE00004368034AE1
:100D30009B01D3581868C0F340107047540400203A
:100D4000416810B504462046FFF7F0FF0028FAD0AE
:100D50008901034B5B585868C0F3080010BD00BF01
:100D6000540400204368034A9B01D3581868C0F319
:100D7000C01070475404002038B544680546284622
:100D8000FFF7F0FF0028FAD0A401034B1B59C1F371
:100D90000801596038BD00BF5404002008B500F0B8
:100DA00005F8BDE8084000F0E1BA0000174A18490C
:100DB000936803F00C03042B10B50DD0082B0DD055
:100DC000144B0B60114B144A9B68C3F30313D25CA2
:100DD0000B68D3400B6010BD104BF2E754685068AD
:100DE00052686302C2F3881200F03F004CBF0B4B05
:100DF000084BB3FBF0F35343044A5268C2F3014279
:100E000001325200B3FBF2F3DBE700BF00380240CF
:100E1000C80100200024F400AC50000800127A0041
:100E20002DE9F041ACB0304B002101911A6C42F039
:100E300080521A641B6C03F080530193019B2B4B6F
:100E400002911A6842F440421A601B6803F440435E
:100E50000293029B012308930746C0B909934FF4FC
:100E6000B47302244FF480050826119308A80723C1
:100E70000E940F95109612941393149401F072F837
:100E800018B900F033FD804618B1002028E0052392
:100E9000E4E74FF4C0731C934FF48073159315A8C7
:100EA0004FF000632A931B961D9600F06BFD0F23F5
:100EB00003934FF4A053069305214FF4805303A8E6
:100EC0000494CDF81480079300F00CFC024600282F
:100ED000DBD10FB94FF08062294600F0B7FB01204B
:100EE0002CB0BDE8F08100BF003802400070004027
:100EF000F0B595B00024234B00941A6C42F0805258
:100F00001A641B6C03F080530093009B1E4B0194EA
:100F10001A6842F440421A601B68089403F4404384
:100F20000193019B0E940323079310230B930F93BC
:100F30004FF4B473022610930127062307A80A97DB
:100F40000D961196129301F00DF80546B8B90F23CE
:100F500002934FF4A0530490059305214FF480535E
:100F600002A80396069300F0BDFB024628B901468D
:100F700000F06CFB384615B0F0BD2846FBE7204674
:100F8000F9E700BF003802400070004008B50120BA
:100F9000FFF746FF18B9FFF7ABFF00B9FEE74FF0C8
:100FA000C06200210120BDE8084000F04FBB0000F6
:100FB000174AD2F8883010B543F47003154CC2F8C4
:100FC00088302368002143F001032360A160236877
:100FD00023F0847323F4803323600F4B6360236812
:100FE00023F4802323604FF00063E16093600B4B98
:100FF0000B4A1A6000F0BAF9FFF7C8FF236A43F002
:1010000008032362236A23F00803236210BD00BF94
:1010100000ED00E00038024010300024C80100203C
:1010200080A8120130B50C4CA268A468B4F1006F1E
:1010300013460CD1131F094C094A53F8045F42F8B8
:10104000045FA242F9D1044A4FF00053936010307C
:1010500043F8201030BD00BF00ED00E0C0010020CB
:10106000FCFFFF1F704700002E4A0368904212D019
:10107000B0F1804F0FD0A2F57C4290420BD002F528
:101080008062904207D002F58062904203D002F560
:10109000784290421DD14A6823F070031343214ADD
:1010A000904204D1CA6823F44073134328E0B0F19E
:1010B000804FF7D01C4A9042F4D002F580629042F3
:1010C000F0D002F580629042ECD002F57842904276
:1010D000E8D0164A9042E5D002F580629042E1D015
:1010E00002F580629042DDD0A2F598329042D9D0CC
:1010F00002F580629042D5D002F580629042D1D054
:1011000003608B68C3620B688362064B984206D00B
:1011100003F58063984202D00123436170470B6955
:101120000363F9E700000140000400400040014073
:1011300010B50446A0B190F8393003F0FF021BB996
:1011400080F83820FFF78EFF022384F839302068BA
:10115000211DFFF789FF012384F83930002010BDDD
:10116000012010BD036A10B501248C4023EA04035A
:101170000362036A8A401A43026210BD10B5044636
:1011800001220068FFF7EEFF2368084A934203D06C
:1011900002F58062934203D15A6C42F400425A64D1
:1011A0001A6842F001021A60002010BD00000140E0
:1011B000FFF7E4BF2DE9F04F85B00B68DFF8A081A1
:1011C000654ADFF8A091019300234FF0010E019CC6
:1011D0000EFA03FE0EEA0406B64540F0AA804C68FB
:1011E00024F01007022F16D14FEAD30A00EB8A0A27
:1011F00003F0070BDAF820504FEA8B0B4FF00F0C7F
:101200000CFA0BFC25EA0C0C0D6905FA0BF545EA06
:101210000C05CAF820504FEA430A0325D0F800B065
:1012200005FA0AF5ED4304F0030C0BEA050B0CFA82
:101230000AFC013F4CEA0B0C012FC0F800C011D88A
:10124000876807EA050BCF6807FA0AFC4CEA0B0728
:101250008760476827EA0E0EC4F300179F4047EAED
:101260000E074760C7683D408F6807FA0AF73D439D
:10127000C560E5005DD54FF0000BCDF80CB0D8F897
:101280004470364D47F48047C8F84470D8F844702D
:1012900007F480470397039F23F0030707F1804774
:1012A00007F59C3703F0030CD7F808A04FEA8C0C25
:1012B0004FF00F0E0EFA0CFEA8422AEA0E0E3FD097
:1012C00005F58065A8423DD005F58065A8423BD074
:1012D00005F58065A84239D005F58065A84237D06C
:1012E000484537D005F50065A84214BF08250625F6
:1012F00005FA0CF545EA0E05BD601568F74314F4D0
:10130000803F0CBF3D4035431560556814F4003FE5
:101310000CBF3D4035435560956814F4801F0CBFE9
:101320003D4035439560D568A40254BF3D403543E8
:10133000D5600133102B7FF448AF05B0BDE8F08FC6
:101340005D46D5E70125D3E70225D1E70325CFE7A1
:101350000425CDE70525CBE7003C01400000024015
:1013600000380240001402407047000008B50A4BE4
:101370001A6842F400721A601A6842F480621A60B5
:101380001A6842F480721A600F20FFF7ABF8FFF77B
:10139000EBFF002008BD00BF003C0240024A13687A
:1013A00001331360704700BF50080020014B1868DC
:1013B000704700BF500800202DE9F0470668C2685A
:1013C0003369C16923F4405313433361044683688E
:1013D0000069F2680343606922F41642034322F075
:1013E0000C020B431343F3607369A26923F4407347
:1013F0001343B1F5004F73617A4B7CD19E4203D009
:1014000003F580639E4244D100F03AFA192505FBAA
:1014100000F360684FF064094000B3FBF0F3B3FBE6
:10142000F9F34FEA031800F02BFA636868435B0096
:10143000B0FBF3F700F024FA636868435B00B0FB8D
:10144000F3F3B3FBF9F309FB1373DB003233B3FBA4
:10145000F9F35B0003F4F87700F012FA626868436E
:101460005200B0FBF2FA00F00BFA636868435B00CD
:10147000B0FBF3F3B3FBF9F309FB13A3DB00323347
:10148000B3FBF9F303F0070343443B44B360BDE807
:10149000F08700F0DDF9192505FB00F360684FF0D7
:1014A00064094000B3FBF0F3B3FBF9F34FEA031810
:1014B00000F0CEF9636868435B00B0FBF3F700F01F
:1014C000C7F9636868435B00B0FBF3F3B3FBF9F360
:1014D00009FB1373DB003233B3FBF9F35B0003F456
:1014E000F87700F0B5F9626868435200B0FBF2FA91
:1014F00000F0AEF9B9E79E4202D03B4B9E4240D18C
:1015000000F0BEF9676819254FF0640905FB00F388
:10151000BF00B3FBF7F3B3FBF9F31F0100F0B0F921
:10152000636868439B00B0FBF3F800F0A9F96368B7
:1015300068439B00B0FBF3F3B3FBF9F309FB1383A0
:101540001B013233B3FBF9F303F0F00800F098F914
:10155000626868439200B0FBF2FA00F091F96368A8
:1015600068439B00B0FBF3F3B3FBF9F309FB13A350
:101570001B013233B3FBF9F303F00F0343EA080313
:1015800083E700F065F9676819254FF0640905FBEA
:1015900000F3BF00B3FBF7F3B3FBF9F31F0100F057
:1015A00057F9636868439B00B0FBF3F800F050F90B
:1015B000636868439B00B0FBF3F3B3FBF9F309FBEB
:1015C00013831B013233B3FBF9F303F0F00800F08F
:1015D0003FF9626868439200B0FBF2FA00F038F914
:1015E000BDE700BF0010014000140140704710B576
:1015F000044640B390F8393003F0FF021BB980F87D
:101600003820FFF7F3FF2268242384F83930D368A9
:1016100023F40053D3602046FFF7CEFE23681A69F7
:1016200022F490421A615A6922F02A025A61DA6859
:1016300042F40052DA6000202023E06384F839305D
:1016400084F83A3010BD012010BD000070B50D4681
:1016500088B01646204CF0B90190236B43F001038B
:101660002363236B059003F001030193019B079013
:101670004FF4807303930223049303A903231748B1
:101680000693FFF797FDA16821F0EC6131432943F0
:10169000A16008B070BD00230293226B104842F095
:1016A00004022263226B059302F004020292029A62
:1016B00007934FF4007203920222049203A90322BB
:1016C0000692FFF777FDA36845EAC60123F0784547
:1016D0000D43A560DDE700BF003802400000024076
:1016E00000080240564B1A6802F00F028A422DE9A8
:1016F000F04105460E4630D32A68940737D4D00708
:101700003DD44F4B1A6802F00F029642C0F0888019
:101710002A68510700F18C80130707D5494A2969C7
:10172000936823F4604343EAC103936000F0A6FD8D
:10173000444BF0229B6892FAA2F2B2FA82F203F0D2
:10174000F003D340404AD35CD840404B18600F2090
:10175000FEF7C8FE0020BDE8F081CAB21A701B680F
:1017600003F00F039942C7D00120BDE8F08135494D
:10177000A8688B6823F0F00303438B60BFE76A68B7
:10178000304B012A1ED11B6813F4003FECD02D4CC6
:10179000A36823F003031343A360FFF707FE6B68FE
:1017A000012B074641F2883816D1A36803F00C03D9
:1017B000042BA6D0FFF7FAFDC01B4045F5D9032046
:1017C000BDE8F081911E01291B6802D813F0007F4B
:1017D000DCE713F0020FD9E7022B0AD1A36803F06C
:1017E0000C03082B8DD0FFF7E1FDC01B4045F5D958
:1017F000E5E7032B0FD1A36803F00C030C2B80D07B
:10180000FFF7D4FDC01B4045F5D9D8E7FFF7CEFD63
:10181000C01B4045D3D8A36813F00C0FF6D170E776
:10182000F2B21A701B6803F00F039E429CD16FE75F
:101830000449E8688B6823F4E05303438B606BE74B
:10184000003C024000380240BC500008C8010020A3
:10185000084B4FF4E0529B6892FAA2F2B2FA82F27D
:1018600003F4E053D340044AD35C044A1068D840E0
:10187000704700BF00380240BC500008C80100207B
:10188000084B4FF460429B6892FAA2F2B2FA82F2DD
:1018900003F46043D340044AD35C044A1068D84040
:1018A000704700BF00380240BC500008C80100204B
:1018B0000F2303600B4B9A6802F0030242609A68A0
:1018C00002F0F00282609A6802F4E052C2609B6803
:1018D000DB0803F4E0530361034B1B6803F00F03C1
:1018E0000B60704700380240003C024037B50023CF
:1018F0000193224B1A6C42F080521A641B6C03F065
:1019000080530193019B4FF4803393FAA3F3B3FA0E
:1019100083F303F1845303F560339B0001221A60C3
:10192000FFF744FD164C05466368DA0315D54FF4FE
:10193000003393FAA3F3B3FA83F303F1845303F56B
:1019400060339B0001221A60FFF730FD0C4C054606
:1019500063689B030AD5002006E0FFF727FD401BC4
:10196000B0F57A7FE0D9032003B030BDFFF71EFD4C
:10197000401BB0F57A7FEBD9F5E700BF0038024095
:10198000007000402DE9F04F036813F0010685B0A8
:1019900004460BD0C849866BD1F88C2022F0C06277
:1019A0003243B6FA86F6C1F88C20760999070BD532
:1019B000C148E16BD0F88C2022F0C0520A430029C4
:1019C000C0F88C2008BF012613F0040512D0BA49D4
:1019D000256BD1F88C20B5F5801F22F4401242EA25
:1019E000050218BFB5FA85F5C1F88C2012BF6D0944
:1019F000002501261A070FD5AF48616BD0F88C205F
:101A000022F440020A43B1F5800FC0F88C2000F0A8
:101A1000BF81002908BF01259F0633D5002303930A
:101A2000A54BA64F1A6C42F080521A641B6C03F04F
:101A300080530393039B3B6843F480733B60FFF741
:101A4000B5FC80463B68D80540F1A4819A4F3B6FB6
:101A500013F4407340F0A981236C03F44072B2F593
:101A6000407F954A40F0C481916823F0704021F492
:101A7000F81120F4407001439160116FC3F30B0320
:101A80000B4313672368DB0642BF8D4B94F8582045
:101A90001A6023681F0608D58749E06CD1F89420A6
:101AA00022F440020243C1F89420580608D5824926
:101AB000A06CD1F8942022F080620243C1F89420F7
:101AC000D9050CD57C48616DD0F8942022F00062D5
:101AD0000A43B1F1006FC0F8942008BF01259A05B0
:101AE00008D57549606CD1F8942022F080520243E9
:101AF000C1F894205F0500F17F81012E40F08A81BA
:101B0000704E6D4F00233360FFF750FC0196804606
:101B10003B68180100F10B822068C10701D5A36B57
:101B200023B1820746D5E36B002B43D1624F4FF4BC
:101B30004031D7F8842091FAA1FE4FF0706CBEFAC4
:101B40008EFED7F884309CFAACF847F6C07BB8FA22
:101B500088F89BFAABFBBBFA8BFB91FAA1F1B1FAC7
:101B600081F19CFAACFC4FF0E04ABCFA8CFC9AFA8A
:101B7000AAFAA66802F4403206FA0BF96669BAFAC4
:101B80008AFA22FA0EF206FA0AFA03F0706366681D
:101B9000013249EA0A0923FA08F322F0004249EA2D
:101BA000060903FA0CF3013A49EA03038A40134396
:101BB000C7F88430430703D5236BB3F5801F05D0E6
:101BC000070750D5636BB3F5800F4CD13A4F4FF4F4
:101BD0004031D7F8842091FAA1FE4FF0E04CBEFAD4
:101BE0008EFED7F884309CFAACF847F6C07BB8FA82
:101BF00088F89BFAABFBBBFA8BFB91FAA1F14FF093
:101C0000706AB1FA81F19AFAAAFABAFA8AFA9CFAD7
:101C1000ACFCA66802F4403206FA0BF9266922FAF7
:101C20000EF206FA0AFA03F0E04366680132BCFAE3
:101C30008CFC49EA0A0923FA08F322F0004249EA37
:101C4000060903FA0CF3013A8A4049EA03031343F5
:101C5000C7F88430D7F88C20A36A22F01F02013B1A
:101C60001343C7F88C30460553D5236DB3F1005F9D
:101C70004FD1DFF844C04FF4403BDCF884209BFA9E
:101C8000ABF84FF0E047B8FA88F8DCF8841097FA20
:101C9000A7F947F6C07AB9FA89F99AFAAAFABAFA0C
:101CA0008AFA9BFAABFB4FF0706EBBFA8BFB9EFA85
:101CB000AEFEBEFA8EFE07E0003802400070004023
:101CC000E01147426800474297FAA7F7E368A66821
:101CD0005B08013B02F4403206FA0AFA03FA0BF3FE
:101CE000666801F0E04122FA08F8B7FA87F743EA9C
:101CF0000A0321FA09F908F10108334309FA07F741
:101D00004FEA48081F4308FA0EFE47EA0E07CCF8D0
:101D1000847001052CD547F6C07797FAA7F74FF4E2
:101D20004033B7FA87F793FAA3F34FF07060B3FA32
:101D300083F290FAA0F04FF0E041B0FA80F091FA0F
:101D4000A1F1E3685B08013B9340A26802FA07F740
:101D500062683B431343226902FA00F06269B1FAF8
:101D600081F102FA01F103437B4A0B43C2F884304C
:101D7000019A794E01231360FFF718FB0746336879
:101D80001A014BD4FFF712FBC01B0228F7D908E059
:101D9000012641E6FFF70AFBA0EB080002287FF6C8
:101DA00051AE032005B0BDE8F08F226C02F4407202
:101DB00093423FF451AE3B6F684A0121116023F416
:101DC0004073002111603B673B6FD9077FF544AE3C
:101DD000FFF7ECFA41F2883980463B6F9A073FF5EE
:101DE0003BAEFFF7E3FAA0EB08004845F5D9D8E78A
:101DF000916821F4F8113FE65748216DD0F89420FE
:101E000022F000520A43B1F1005FC0F894207FF441
:101E100074AE75E6B3F5006F3FF472AE012D40F07D
:101E200084804F4D4C4E00232B60FFF7BFFA0746CE
:101E300033689B0000F183802068460701D5236B3F
:101E40001BB1010738D5636BB3BB43494FF4403630
:101E5000D1F8883096FAA6FE47F6C072BEFA8EFE1A
:101E600092FAA2F2B2FA82F796FAA6F64FF0706CE6
:101E7000B6FA86F69CFAACFCE26903F44033BA4049
:101E8000676ABCFA8CFC23FA0EF307FA0CF70133ED
:101E90003A4323F00043A769013B3A43B34013435D
:101EA000C1F88830D1F88C30E26A23F4F853013A53
:101EB00043EA0223C1F88C30C2052DD5636DB3F11E
:101EC000006F29D124494FF07060D1F8882090FA32
:101ED000A0F647F6C07EB6FA86F69EFAAEFE4FF43E
:101EE0004033BEFA8EFE93FAA3F3B3FA83F790FA67
:101EF000A0F0236A5B08013BBB40E769A46907FACD
:101F00000EF702F07062B0FA80F03B43F2402343D8
:101F100082401343C1F8883001232B60FFF746FA53
:101F20000D4C054623689B0010D500203AE7FFF7CB
:101F30003DFAA0EB080002287FF6EAAD31E7FFF793
:101F400035FAC01B02287FF673AF2AE7FFF72EFA97
:101F5000401B0228E6D924E700380240400E4742E1
:101F6000700047420368F7B5DF07044638D423689A
:101F70009E077AD423681E0700F1CF8023685D078F
:101F800028D500230193AF4BAF4D1A6C42F080521D
:101F90001A641B6C03F080530193019B2B6843F47C
:101FA00080732B60FFF702FA06462B68DA0540F1D2
:101FB000D680A64B227A1A70A368002B00F0DD8031
:101FC000FFF7F4F99F4D064641F288372B6F9B07C8
:101FD00040F1CC80A269002A40F0DF8000201EE0A2
:101FE000984B9A6802F00C02042A10D09A6802F00A
:101FF0000C02082A02D15B685D0208D4914A9368FA
:1020000003F00C030C2B0CD15368580209D58D4BEF
:102010001B689903ABD56368002BA8D1012003B0DE
:10202000F0BD8B4B22791A7063687BB1FFF7BEF964
:10203000844D064641F288372B689A0397D4FFF700
:10204000B5F9801BB842F7D90320E8E7FFF7AEF9EE
:102050007C4D064641F288372B689B0387D5FFF7F6
:10206000A5F9801BB842F7D9EEE7764B9A6812F0D3
:102070000C0F10D09A6802F00C02082A02D15B689B
:10208000580208D56F4A936803F00C030C2B16D145
:102090005368590213D46B4B1A68920702D5E26851
:1020A000012ABBD11868F82292FAA2F2B2FA82F1A0
:1020B00022698A4020F0F8010A431A605AE7E26870
:1020C000644BDAB101221A60FFF770F95D4D0646E4
:1020D0002B689B070CD52968F82393FAA3F3B3FA6E
:1020E00083F22369934021F0F80213432B6041E708
:1020F000FFF75CF9801B0228EAD9A5E71A60FFF711
:1021000055F9504D06462B689F077FF533AFFFF713
:102110004DF9801B0228F6D996E762694E4B7AB1D9
:1021200001221A60FFF742F9464D06466B6F980789
:102130003FF524AFFFF73AF9801B0228F6D983E771
:102140001A60FFF733F93F4D06466B6F99077FF52D
:1021500015AFFFF72BF9801B0228F6D974E7FFF7BC
:1021600025F9801B02287FF620AF6DE7FFF71EF9E7
:10217000801BB8427FF62AAF66E7FFF717F9314DAB
:10218000064641F288372B6F98077FF523AFFFF79C
:102190000DF9801BB842F6D956E72A4DAB6803F01B
:1021A0000C03082B3FF43AAF2C4E0023022A336075
:1021B00056D1FFF7FBF807462B6899013CD447F648
:1021C000C07E9EFAAEFE4FF44032BEFA8EFE92FA08
:1021D000A2F24FF07060B2FA82F790FAA0F04FF0DE
:1021E000E041B0FA80F091FAA1F1226AE369134369
:1021F000626A02FA0EF21343A26A5208013ABA4026
:102200001343E26A02FA00F0226B0E4CB1FA81F13C
:10221000034302FA01F10B436B6001233360FFF7C4
:10222000C5F8054623689A013FF5D8AEFFF7BEF81A
:10223000401B0228F6D907E7FFF7B8F8C01B0228B1
:10224000BAD901E7003802400070004070380240FF
:102250000238024000004742800E47426000474279
:10226000FFF7A4F804462B689B017FF5B7AEFFF794
:102270009DF8001B0228F6D9E6E600BF2B4B9A68B2
:1022800002F00C02082A07D00C2A2CD0284B29482F
:10229000042A18BF184670475A6859685B6811F4D9
:1022A000800F02F03F0247F6C07191FAA1F0B0FA38
:1022B00080F003EA010323FA00F314BF1D481C4811
:1022C000B0FBF2F05843194B4FF440325B6892FA7E
:1022D000A2F2B2FA82F203F44033D34001335B003E
:1022E000B0FBF3F070475A6859685B6811F4800FCF
:1022F00002F03F0247F6C07191FAA1F0B0FA80F007
:1023000003EA010323FA00F314BF0A480848B0FBAC
:10231000F2F05843054B4FF0E0425B6892FAA2F2AC
:10232000B2FA82F203F0E043D340D9E7003802402A
:102330000024F40000127A00C36810B504460BB103
:102340009B689847204610BD38B5044648B15830C0
:10235000A04206D0A0F12C051438FFF7EDFF284667
:10236000F6E7204638BD000070B50E4C204600252B
:1023700028263246294640F8045B00F0DEFE32464D
:10238000294604F13000E56200F0D7FEA56520463D
:10239000E565054A84F860500449BDE8704000F0E6
:1023A0000BB900BF54060020C401002049230008D7
:1023B00000F028BF00F0D8BE00F0C7BE08B5084B3B
:1023C0001B685BB9022107480322FEF7BBFB4FF4F1
:1023D00016510448BDE80840FEF7A4BC08BD00BF84
:1023E0005004002004080020022810B5044601DC37
:1023F000002010BD00F0D6FC09230360033C094B0C
:1024000053F82400002243F8242040B103681B69DC
:102410009847041EECDA00F0C5FC644204604FF0FB
:10242000FF3010BDB8060020F8B505460E4614462C
:1024300000F0B8FC0923022D03600FDC124B1B686F
:102440000BB9FFF7BBFF35463719104EBD4215D00B
:1024500015F8011B3046FEF78FFCF7E7033D0C4BE8
:1024600053F8250060B103682246DB68314698477F
:10247000041E03DA00F096FC634203602046F8BDB8
:102480004FF0FF34FAE700BF50040020040800209A
:10249000B806002070B504460D46164600F082FCD2
:1024A0000923022C03600BDC0F4B1B680BB9FFF7F1
:1024B00085FF0E48FEF744FC01242870204670BDBD
:1024C000033C0B4B53F8240058B1036832469B6819
:1024D00029469847041EF1DA00F064FC6342036069
:1024E000ECE74FF0FF34E9E7500400200408002037
:1024F000B806002070B504460D46164600F052FCA2
:102500000923022C03600BDD033C084B53F8240025
:1025100040B1036832462946DB69BDE87040184780
:10252000002070BD4FF0FF3070BD00BFB806002026
:10253000704708B5FEF732FCFFF7FAFF08BD704799
:1025400008B5FFF7FCFFBDE80840FDF771BE0000CD
:102550000C4A136810B51844EFF30881884205D37C
:10256000094B0C221A604FF0FF3010BD07490C6870
:1025700024B10749096821448842F1D21060184605
:1025800010BD00BFCC01002054080020B807002077
:10259000BC070020074C08B523680546986800F082
:1025A000B9FC2368D86800F0B5FC0DB1FDF757FF02
:1025B000FEE700BFD00100200120704708B5FFF7FB
:1025C000E9FF7047704708B5FFF7FBFF08BD08B586
:1025D000FFF7F8FF08BD0000DFF820D0002103E07E
:1025E000074B5B58435004310648074B42189A4248
:1025F000F6D3FEF7DDFCFDF73FFE7047000002203A
:102600005C530008C4010020B4030020FEE7000072
:1026100081F0004102E000BF83F0004330B54FEA93
:1026200041044FEA430594EA050F08BF90EA020F00
:102630001FBF54EA000C55EA020C7FEA645C7FEA93
:10264000655C00F0E2804FEA5454D4EB5555B8BFB6
:102650006D420CDD2C4480EA020281EA030382EA27
:10266000000083EA010180EA020281EA0303362DB9
:1026700088BF30BD11F0004F4FEA01314FF4801C8C
:102680004CEA113102D0404261EB410113F0004F9E
:102690004FEA03334CEA133302D0524263EB430355
:1026A00094EA050F00F0A780A4F10104D5F1200EF3
:1026B0000DDB02FA0EFC22FA05F2801841F100014E
:1026C00003FA0EF2801843FA05F359410EE0A5F122
:1026D00020050EF1200E012A03FA0EFC28BF4CF053
:1026E000020C43FA05F3C01851EBE37101F0004509
:1026F00007D54FF0000EDCF1000C7EEB00006EEB16
:102700000101B1F5801F1BD3B1F5001F0CD349089F
:102710005FEA30004FEA3C0C04F101044FEA4452F6
:1027200012F5800F80F09A80BCF1004F08BF5FEA7D
:10273000500C50F1000041EB045141EA050130BD5D
:102740005FEA4C0C404141EB010111F4801FA4F100
:102750000104E9D191F0000F04BF01460020B1FA55
:1027600081F308BF2033A3F10B03B3F120020CDA8D
:102770000C3208DD02F1140CC2F10C0201FA0CF06B
:1027800021FA02F10CE002F11402D8BFC2F1200CD0
:1027900001FA02F120FA0CFCDCBF41EA0C01904086
:1027A000E41AA2BF01EB0451294330BD6FEA0404CF
:1027B0001F3C1CDA0C340EDC04F11404C4F12002BA
:1027C00020FA04F001FA02F340EA030021FA04F3CC
:1027D00045EA030130BDC4F10C04C4F1200220FA23
:1027E00002F001FA04F340EA0300294630BD21FA61
:1027F00004F0294630BD94F0000F83F4801306BF27
:1028000081F480110134013D4EE77FEA645C18BF1A
:102810007FEA655C29D094EA050F08BF90EA020FB1
:1028200005D054EA000C04BF1946104630BD91EAA9
:10283000030F1EBF0021002030BD5FEA545C05D1AC
:102840004000494128BF41F0004130BD14F58004EB
:102850003CBF01F5801130BD01F0004545F0FE415F
:1028600041F470014FF0000030BD7FEA645C1ABF94
:10287000194610467FEA655C1CBF0B46024650EACB
:10288000013406BF52EA033591EA030F41F40021F7
:1028900030BD00BF90F0000F04BF0021704730B57D
:1028A0004FF4806404F132044FF000054FF0000152
:1028B00050E700BF90F0000F04BF0021704730B513
:1028C0004FF4806404F1320410F0004548BF4042E8
:1028D0004FF000013EE700BF42004FEAE2014FEA3D
:1028E00031014FEA02701FBF12F07F4393F07F4F18
:1028F00081F06051704792F0000F14BF93F07F4F4A
:10290000704730B54FF4607401F0004521F000418C
:1029100020E700BF50EA010208BF704730B54FF012
:1029200000050AE050EA010208BF704730B511F017
:10293000004502D5404261EB41014FF4806404F14F
:1029400032045FEA915C3FF4DCAE4FF003025FEAD1
:10295000DC0C18BF03325FEADC0C18BF033202EB59
:10296000DC02C2F1200300FA03FC20FA02F001FAB3
:1029700003FE40EA0E0021FA02F11444C1E600BF52
:1029800070B54FF0FF0C4CF4E06C1CEA11541DBF05
:102990001CEA135594EA0C0F95EA0C0F00F0DEF8D0
:1029A0002C4481EA030621EA4C5123EA4C5350EAB5
:1029B000013518BF52EA033541F4801143F4801306
:1029C00038D0A0FB02CE4FF00005E1FB02E506F097
:1029D0000042E0FB03E54FF00006E1FB03569CF0EC
:1029E000000F18BF4EF0010EA4F1FF04B6F5007FF2
:1029F00064F5407404D25FEA4E0E6D4146EB060664
:102A000042EAC62141EA55514FEAC52040EA5E50EC
:102A10004FEACE2EB4F1FD0C88BFBCF5E06F1ED896
:102A2000BEF1004F08BF5FEA500E50F1000041EBCD
:102A3000045170BD06F0004646EA010140EA02007A
:102A400081EA0301B4EB5C04C2BFD4EB0C0541EA9C
:102A5000045170BD41F480114FF0000E013C00F3B1
:102A6000AB8014F1360FDEBF002001F0004170BDD5
:102A7000C4F10004203C35DA0C341BDC04F11404EE
:102A8000C4F1200500FA05F320FA04F001FA05F27A
:102A900040EA020001F0004221F0004110EBD37047
:102AA00021FA04F642EB06015EEA430E08BF20EA73
:102AB000D37070BDC4F10C04C4F1200500FA04F316
:102AC00020FA05F001FA04F240EA020001F00041A8
:102AD00010EBD37041F100015EEA430E08BF20EA1B
:102AE000D37070BDC4F1200500FA05F24EEA020E63
:102AF00020FA04F301FA05F243EA020321FA04F092
:102B000001F0004121FA04F220EA020000EBD37048
:102B10005EEA430E08BF20EAD37070BD94F0000F48
:102B20000FD101F00046400041EB010111F4801F7C
:102B300008BF013CF7D041EA060195F0000F18BF2D
:102B4000704703F00046520043EB030313F4801F69
:102B500008BF013DF7D043EA0603704794EA0C0F23
:102B60000CEA135518BF95EA0C0F0CD050EA410639
:102B700018BF52EA4306D1D181EA030101F00041B6
:102B80004FF0000070BD50EA410606BF10461946DE
:102B900052EA430619D094EA0C0F02D150EA0136EA
:102BA00013D195EA0C0F05D152EA03361CBF10462B
:102BB00019460AD181EA030101F0004141F0FE41CA
:102BC00041F470014FF0000070BD41F0FE4141F44E
:102BD000780170BD70B54FF0FF0C4CF4E06C1CEA4E
:102BE00011541DBF1CEA135594EA0C0F95EA0C0F03
:102BF00000F0A7F8A4EB050481EA030E52EA0335BE
:102C00004FEA013100F088804FEA03334FF08055DE
:102C100045EA131343EA12634FEA022245EA11150B
:102C200045EA10654FEA00260EF000419D4208BFBC
:102C3000964244F1FD0404F5407402D25B084FEA69
:102C40003202B61A65EB03055B084FEA32024FF415
:102C500080104FF4002CB6EB020E75EB030E22BF72
:102C6000B61A754640EA0C005B084FEA3202B6EB32
:102C7000020E75EB030E22BFB61A754640EA5C00E1
:102C80005B084FEA3202B6EB020E75EB030E22BF71
:102C9000B61A754640EA9C005B084FEA3202B6EB72
:102CA000020E75EB030E22BFB61A754640EADC0031
:102CB00055EA060E18D04FEA051545EA16754FEA93
:102CC00006164FEAC30343EA52734FEAC2025FEAB1
:102CD0001C1CC0D111F4801F0BD141EA00014FF040
:102CE00000004FF0004CB6E711F4801F04BF014311
:102CF0000020B4F1FD0C88BFBCF5E06F3FF6AFAE2D
:102D0000B5EB030C04BFB6EB020C5FEA500C50F1BC
:102D1000000041EB045170BD0EF0004E4EEA11313F
:102D200014EB5C04C2BFD4EB0C0541EA045170BD46
:102D300041F480114FF0000E013C90E645EA060E8A
:102D40008DE60CEA135594EA0C0F08BF95EA0C0FB8
:102D50003FF43BAF94EA0C0F0AD150EA01347FF400
:102D600034AF95EA0C0F7FF425AF104619462CE7D7
:102D700095EA0C0F06D152EA03353FF4FDAE10463A
:102D8000194622E750EA410618BF52EA43067FF48B
:102D9000C5AE50EA41047FF40DAF52EA43057FF41B
:102DA000EBAE12E7014B1868704700BFD00100205E
:102DB0008A892DE9F041054610070C465AD44B6824
:102DC000002B05DC0B6C002B02DC0020BDE8F08141
:102DD000E66A002EF9D0002312F480522F682B608F
:102DE00033D0606DA3895A0705D56368C01A636B39
:102DF0000BB1236CC01A00230246E66A216A2846FA
:102E0000B047431CA38906D129681D294BD82B4AFA
:102E1000CA40D60747D500226260D90422692260E1
:102E200004D5421C01D12B6803B96065616B2F602A
:102E30000029CAD004F14403994202D02846FFF782
:102E4000B9FA00206063BDE8F081216A01232846B9
:102E5000B047411CC6D12B68002BC3D01D2B01D01D
:102E6000162B01D12F60B0E7A38943F04003A38163
:102E7000BDE8F0810F69002FA7D093070E6808BF47
:102E80004B690F6018BF0023A6EB07088B60B8F1F1
:102E9000000F9ADD43463A46216AA66A2846B047A3
:102EA000002807DCA38943F04003A3814FF0FF30E3
:102EB000BDE8F0810744A8EB0008E8E701004020E6
:102EC00038B50B6905460C46DBB118B183690BB9FF
:102ED00000F072F80C4B9C4209D16C68B4F90C30CC
:102EE0007BB121462846BDE83840FFF761BF074B5C
:102EF0009C4201D1AC68F1E7054B9C4208BFEC68ED
:102F0000ECE7002038BD00BFEC5000080C51000871
:102F1000CC500008014620B9044B0549186800F060
:102F2000B7B8044B1868FFF7CBBF00BF2C5100089F
:102F3000C12E0008D0010020014900F0A9B800BF4F
:102F4000C12E0008002310B504460360436083606F
:102F500081814366C281036143618361194608220E
:102F60005C3000F0EAF8054B6362054BA362054B49
:102F7000E362054B2462236310BD00BF8139000862
:102F8000A3390008DB390008FF39000870B54A1E74
:102F9000682555430E4605F17401FFF709FA04460A
:102FA00040B1002180E842000C30A06005F16802C9
:102FB00000F0C3F8204670BD836910B5044633BBEA
:102FC0008364C3640365124B124A1B688262984291
:102FD00004BF0123836100F01FF86060204600F009
:102FE0001BF8A060204600F017F80022E0600421E2
:102FF0006068FFF7A7FF01220921A068FFF7A2FF81
:1030000002221221E068FFF79DFF0123A36110BD9A
:103010002C510008392F0008F8B51C4B1E68B36905
:10302000074613B93046FFF7C7FF4836B4687368E0
:10303000013B03D5336833B13668F7E7B4F90C5078
:103040006DB16834F4E704213846FFF79FFF306024
:103050000028F1D10C233B6004462046F8BD4FF612
:10306000FF73E3810123A38165662560A560656028
:1030700025616561A5610822294604F15C0000F024
:103080005CF86563A563A564E564E6E72C51000878
:103090002DE9F8438046894600F14804002614B91A
:1030A0003046BDE8F883A5686768013F01D524680C
:1030B000F5E7AB89012B07D9B5F90E30013303D001
:1030C00029464046C84706436835EEE770B50D4EC1
:1030D0000D4CA41BA4100025A54209D10B4E0C4C8D
:1030E00001F000FFA41BA4100025A54205D170BD6E
:1030F00056F8253098470135EEE756F825309847C1
:103100000135F2E7A0030020A0030020A003002067
:10311000AC030020024B01461868FFF749B900BF15
:10312000D001002010B5431E0A44914200D110BDC9
:1031300011F8014B03F8014FF7E7024403469342AD
:1031400000D1704703F8011BF9E738B502FB01F421
:103150002146FFF72DF9054618B122460021FFF759
:10316000ECFF284638BD000038B50546002945D09B
:1031700051F8043C0C1F002BB8BFE418FFF723FAEA
:103180001F4A1368104633B9636014602846BDE8CF
:103190003840FFF71CBAA3420CD921686218934249
:1031A00004BF1A685B68636004BF52182260046041
:1031B000ECE713465A680AB1A242FAD919685818BE
:1031C000A0420BD120680144581882421960DDD119
:1031D000106852685A6001441960D7E702D90C237D
:1031E0002B60D3E7206821188A4204BF1168526817
:1031F000626004BF091821605C60C7E738BD00BF8A
:10320000C007002070B5CD1C25F0030508350C2D36
:1032100038BF0C25002D064601DBA94203D90C233B
:103220003360002070BDFFF7CEF9234A14682146B1
:1032300091B9224C23681BB9304600F091FB206005
:103240002946304600F08CFB431C26D10C2333600A
:103250003046FFF7BCF9E4E70B685B1B1AD40B2B75
:103260000FD90B60CD50CC183046FFF7B0F904F100
:103270000B00231D20F00700C31A1BD05A42E25056
:1032800070BD8C420DBF63684B686360136018BFEC
:103290000C46E9E70C464968CAE7C41C24F003045D
:1032A000A04205D0211A304600F05AFB0130CDD0A3
:1032B0002560D9E770BD00BFC0070020C40700200B
:1032C0002DE9F04788B0002B149F1299109EDDF86D
:1032D0004CA01D4627F02007BBBF03F100431D464D
:1032E00000232D231446B8BF1446462F0B7004D07C
:1032F000452F00D10136022300E0032307AA0492E0
:1033000006AA03928DE8480422462B4600F034FCBE
:10331000472F804602D1119BDB0726D5462F08EBAD
:10332000060911D198F80030302B0AD10022002371
:103330002046294601F066FD18B9C6F10106CAF813
:103340000060DAF800309944002200232046294624
:1033500001F058FD38B93022079B994505D9591C11
:1033600007911A70F8E7CDF81C90079B159AA3EB0C
:1033700008034046136008B0BDE8F087F7B5034680
:103380000029B8BF494203F8022BB4BF2D222B22DB
:103390000929427020DD0DF1070217460A2691FB2C
:1033A000F6F506FB15113031092D02F8011C02F16A
:1033B000FF34294609DC3031023A04F8011CBA42D4
:1033C0001C4604D3201A03B0F0BD2246E7E712F8EA
:1033D000011B03F8011BF2E730221C46114404F8DC
:1033E000022B5970EEE700002DE9F04F91B00C462A
:1033F000DDF8688016461F46054601F08BF9036824
:103400000893184600F0FFFA00230E93D8F8003016
:103410000990073323F0070303F1080294F818A07A
:10342000D4F800B0C8F80020D3E90023C4E912237F
:10343000D4E9128929F000430B93CDF828804FF08E
:10344000FF32A84BDDE90A0101F00EFD002840F033
:1034500001824FF0FF32A34BDDE90A0101F0E6FCE7
:10346000002840F0F781002200234046494601F041
:10347000D3FC10B12D2384F843309B4B9B4ABAF107
:10348000470F8CBF90469846032323612BF004031B
:1034900023604FF00009009733460FAA21462846C3
:1034A00000F0E8F9013040F09A804FF0FF3011B0A1
:1034B000BDE8F08F6268531C0EA84BF480630DF1D9
:1034C000340E41D106226260236000210DF13302E7
:1034D0000193636805900292009342464B46069121
:1034E000CDF810A0CDF80CE02846FFF7E9FE0AF071
:1034F000DF03472B804609D10D9BD81C02DB626895
:10350000934259DDAAF1020A5FFA8AFABAF1650F0D
:103510000D9936D80139524604F150000D91FFF74C
:103520002DFF0E9A8318012A8146236102DC22684E
:10353000D10701D5013323619DF83330002BAAD088
:103540002D2384F84330A6E7BAF1670F02D0BAF111
:10355000470FB9D19AB1002106910DF133018DE8E1
:103560000C00236005904246CDF810A0CDF80CE089
:1035700002914B462846FFF7A3FE8046BCE7012296
:10358000A1E7BAF1660F19D1002963680CDD21614A
:1035900013B92268D20702D501330B4423610D9B76
:1035A000A3654FF00009C7E713B92268D00701D51A
:1035B0000233F3E70123F1E74FF0670A0D9B0E9A00
:1035C000934205DB22682361D107E8D50133E5E7A3
:1035D000002BD4BFC3F1020301231344DEE72368A9
:1035E0005A0507D42369424631462846B847013078
:1035F0002BD15AE7BAF1650F40F2E1800022002397
:10360000D4E9120101F0FEFB00283CD00123384A26
:1036100031462846B84701303FF447AF0E9B0D9A1C
:103620009A4202DB2368D8070FD5099B089A3146D6
:103630002846B84701303FF438AF4FF0000804F196
:103640001A090E9B013B984512DB23689B0709D59D
:103650004FF0000804F11909E3680F9A9B1A984586
:10366000C0F2ED80E0680F9B9842B8BF18461EE795
:1036700001234A4631462846B84701303FF415AF8A
:1036800008F10108DDE70D9B002B33DC0123184A0C
:1036900031462846B84701303FF407AF0D9B23B9A8
:1036A0000E9B13B92368D907CFD5099B089A3146D9
:1036B0002846B84701303FF4F8AE4FF0000904F156
:1036C0001A0A0D9B5B42994501DB0E9B8BE7012398
:1036D000524631462846B84701303FF4E6AE09F17C
:1036E0000109EEE7FFFFEF7F305100083451000879
:1036F000405100080E9AA36D9A42A8BF1A46002AAC
:10370000914638DC04F11A034FF0000B29EAE979FD
:103710000A93D4F858A0AAEB09039B4533DB0E9B10
:103720000D9A9A423ADB2368DA0737D40E9B0D993B
:10373000A3EB0A02A3EB01099145A8BF9146B9F199
:10374000000F33DC4FF0000829EAE97904F11A0A86
:103750000D9A0E9B9B1AA3EB09039845BFF675AF14
:103760000123524631462846B84701303FF49DAE0A
:1037700008F10108ECE71346314642462846B847AF
:103780000130BFD191E601230A9A31462846B84755
:1037900001303FF48AAE0BF1010BBAE7099B089A9E
:1037A00031462846B8470130C0D17EE64B4608EB8B
:1037B0000A0231462846B8470130C3D175E60E9A51
:1037C000012A01DCDB0737D5012342463146284672
:1037D000B84701303FF469AE099B089A3146284644
:1037E000B84701303FF461AE00220023D4E9120152
:1037F00001F008FB58B14FF0000804F11A0A0E9BC3
:10380000013B98450DDB4B4604F15002ECE60E9B64
:1038100008F10102013B31462846B8470130F2D198
:1038200043E60123524631462846B84701303FF46B
:103830003CAE08F10108E2E701234246EBE7012331
:103840004A4631462846B84701303FF42EAE08F1CB
:10385000010801E742464B464046494601F004FB59
:1038600000283FF427AE014B014A08E63851000812
:103870003C5100082DE9F04791461F468A680B69C4
:10388000DDF820809342B8BF1346C9F8003091F8A4
:10389000432006460C4612B10133C9F800302368B4
:1038A000990642BFD9F800300233C9F800302568C4
:1038B00015F0060507D104F1190AE368D9F80020CC
:1038C0009B1A9D4229DB94F843302268003318BFCD
:1038D000012392062ED404F1430239463046C047F4
:1038E000013021D02368E568D9F8002003F00603F1
:1038F000042B08BFAD1AA36822690CBF25EAE57541
:1039000000259342C4BF9B1AED184FF000091A34EA
:103910004D451BD10020BDE8F087012352463946B2
:103920003046C047013003D14FF0FF30BDE8F0878B
:103930000135C2E7E1185A1C302081F843002244C7
:1039400094F8451082F843100233C4E7012322465D
:1039500039463046C0470130E6D009F10109D7E7C2
:1039600038B5064C0023054608462360FEF7F0FDF7
:10397000431C02D1236803B12B6038BD54080020DA
:1039800010B50C46B1F90E1001F0C6F90028ABBF16
:10399000636DA3891B1823F48053ACBF6365A381B7
:1039A00010BD2DE9F0411F468B89DB0505460C460D
:1039B000164605D502230022B1F90E1000F0B8FE1C
:1039C000A389B4F90E1023F48053A38132463B46F9
:1039D0002846BDE8F04100F01FB810B50C46B1F91B
:1039E0000E1000F0A5FE431CA38915BF606523F4EB
:1039F000805343F48053A38118BFA38110BDB1F954
:103A00000E1000F01BB8034613F8012B002AFBD15F
:103A1000181A01387047000038B5074C05460846AB
:103A20001146002222601A46FEF7FEFC431C02D11A
:103A3000236803B12B6038BD5408002038B5064C0C
:103A40000023054608462360FEF7CEFC431C02D146
:103A5000236803B12B6038BD540800202DE9F74FCF
:103A600003690C699C42804600F38280013C01F1AD
:103A700014074FEA840E00F1140657F8245056F844
:103A8000240006EB0E03013507EB0E090193B0FB92
:103A9000F5F595B34FF0000A3846B446D34650F8D2
:103AA000042B93B205FB03A34FEA134A9BB2ABEB83
:103AB0000303120CBCF800B005FB02A213FA8BF34F
:103AC0004FEA124A1FFA82FBDCF80020CBEB1242CD
:103AD00002EB23429BB243EA024381454FEA224B69
:103AE0004CF8043BDBD256F80E3033B9019B043B53
:103AF0009E421A4630D3C8F81040404601F045F8BF
:103B0000002825DB013530464FF0000E57F8042B16
:103B1000D0F800C093B2AEEB0303120C13FA8CF38F
:103B2000C2EB1C4202EB23429BB243EA0243B9457B
:103B30004FEA224E40F8043BE8D256F8242006EB28
:103B400084032AB9043B9E421A460BD3C8F810409E
:103B5000284603B0BDE8F08F1268043B002ACAD1A2
:103B6000013CC5E71268043B002AEFD1013CEAE7BB
:103B70000020EEE7000000002DE9F04F466A97B004
:103B80000446239DCDE902233EB91020FFF7C2FA77
:103B90006062466086600660C660636A196851B1FB
:103BA0005A684A60012393408B60204600F018FE5B
:103BB000636A00221A60039B002BBFBF01232B60A6
:103BC000039B23F00043B2BF039300232B60DDF877
:103BD0000C90AB4B33EA09031BD1229A42F20F73CC
:103BE0001360029B23B9C9F31300002800F07D8500
:103BF000249B53B9A34B21E0A34B05930833249A8C
:103C00001360059817B0BDE8F08F9E4B0593033302
:103C1000F5E7DDE90267002200233046394601F06E
:103C2000F1F8804660B1229A01231360249B002B97
:103C300000F05885954B249A1360013B0593E0E70B
:103C400014AB019315AB009332463B46204601F07E
:103C500014F8C9F30A558246002D7ED0C7F313032A
:103C600043F07F51304641F44011A5F2FF35CDF8C5
:103C700048800022864BFEF7CFFC7BA3D3E90023CC
:103C8000FEF77EFE7AA3D3E90023FEF7C7FC0646C3
:103C900028460F46FEF70EFE77A3D3E90023FEF772
:103CA0006FFE02460B4630463946FEF7B7FC064625
:103CB0000F4601F0EFF800228346002330463946D4
:103CC00001F0AAF858B15846FEF7F4FD02460B463B
:103CD0003046394601F096F808B90BF1FF3BBBF1CD
:103CE000160F59D86B4901EBCB01DDE90223D1E96D
:103CF000000101F0AFF8002850D00BF1FF3B00238A
:103D00000D93149B5D1B6B1E099345BFC5F1010309
:103D10000893002300234CBF09930893BBF1000FC5
:103D20003EDB099BCDF830B05B44099300230A9336
:103D3000209B092B00F2B280052BC4BF043B2093CB
:103D4000209BA3F10203CCBF00260126032B00F227
:103D5000B180DFE803F082842F77159B149D1D440A
:103D600005F23243202B11DD029A05F21240C3F115
:103D7000400322FA00F009FA03F31843FEF78AFD24
:103D80000123A1F1F871013D129372E7C3F1200004
:103D9000029B03FA00F0F1E70123B1E70D90B0E7D1
:103DA000089BA3EB0B030893CBF100030A930023BA
:103DB0000C93BDE701230B93219B002B7DDD079323
:103DC0000693656A00226A60042101F114029A4296
:103DD00078D96968204600F0CFFC636A28601B68C8
:103DE0000593069B0E2B00F2E880002E00F0E58084
:103DF0009DED027BBBF1000F8DED0E7B77DD254A3B
:103E00000BF00F034FEA2B1602EBC303F006D3E9C6
:103E100000895CD5204B51EC170BD3E90823FEF742
:103E2000D9FECDE9020106F00F0603251A4F002E38
:103E30004FD142464B46DDE90201FEF7CBFECDE90C
:103E400002016DE001230B93219B5B440793013337
:103E5000012B0693B8BF0123B3E70023ABE7002390
:103E6000F1E700BFAFF3008061436F63A787D23FE4
:103E7000B3C8608B288AC63FFB799F501344D33F59
:103E80000000F07F4B5100084251000841510008EA
:103E90000000F83F80510008585100080126002317
:103EA00020930B964FF0FF330793069300221223C3
:103EB000219286E701230B93F4E7012307930693EE
:103EC0001A46F5E76A6801326A6049007DE7022513
:103ED000ACE7F10708D540464946D7E90023FEF78D
:103EE0004FFD013580468946761008379FE700F080
:103EF0009D80CBF100069F4B9F4F06F00F0203EB16
:103F0000C203D3E90023DDE90E01FEF739FDCDE957
:103F10000201361100230225002E7CD1002B8ED108
:103F20000D9B002B00F08480DDE902890022934B79
:103F30004046494600F070FF002879D0069B002BD0
:103F400076D0079B002B34DD00228D4B404649463E
:103F5000FEF716FDCDE90201079E0BF1FF37013593
:103F60002846FEF7A7FCDDE90223FEF709FD002243
:103F7000844BFEF753FB8046A1F15079002E5AD1B5
:103F80000022814BDDE90201FEF746FB42464B462B
:103F9000CDE9020100F05EFF002840F09B8242461E
:103FA00009F10043DDE9020100F036FF002840F08E
:103FB0008F82DDE90E23CDE90223159B002BC0F291
:103FC0005081BBF10E0F00F34C816A4B03EBCB0326
:103FD000D3E90089219B002B80F2DA80069B002B1D
:103FE00000F3D68040F073820022674B404649467A
:103FF000FEF7C6FCDDE9022300F022FF069E3746ED
:10400000002840F04A82059B059A5D1C31231370FD
:104010000BF1010B45E2F20705D5D7E90023FEF7C6
:10402000AFFC013501237610083775E7022577E7E5
:104030005F46069E94E7059A4E4B324413920B9AC4
:10404000711E002A48D003EBC103D3E900230020EE
:104050004E49FEF7BFFD42464B46FEF7DDFA059D91
:1040600080468946DDE9020100F014FF0646FEF7AE
:1040700021FC02460B46DDE90201FEF7CDFA30369F
:1040800005F8016B42464B46CDE9020100F0C4FE43
:10409000002865D1DDE9022300203849FEF7BCFA8B
:1040A00042464B4600F0B8FE002840F0BA80139B11
:1040B0009D423FF47EAF0022314B40464946FEF719
:1040C0005FFC0022804689462D4BDDE90201FEF7A8
:1040D00057FCCDE90201C5E703EBC10142464B465F
:1040E000D1E90001FEF74CFCCDE91001059DDDE9A9
:1040F000020100F0CFFE0646FEF7DCFB303602463A
:104100000B46DDE90201FEF787FA05F8016B139B08
:10411000AB42804689464FF0000225D11B4BDDE9BA
:104120001001FEF77BFA02460B464046494600F076
:1041300091FE002875D1DDE9102300201349FEF718
:104140006BFA02460B464046494600F065FE0028E1
:104150003FF42FAF15F8013C302B05F1FF3201D0B1
:10416000BB464DE01546F5E7054BFEF709FCCDE9EA
:104170000201BCE780510008585100080000F03FE0
:104180000000244000001C40000014400000E03FFC
:10419000DDE90267059D42464B4630463946FEF74B
:1041A00019FD00F077FE0290FEF784FB42464B4675
:1041B000FEF7E6FB02460B4630463946FEF72CFA80
:1041C000029E069F303605F8016B059EAE1BB74276
:1041D00002460B4638D1FEF721FA06460F46024644
:1041E0000B464046494600F017FEC8B932463B46EA
:1041F0004046494600F006FE10B1029BDB070FD493
:104200005146204600F0ECFA0023229A2B700BF165
:1042100001031360249B002B3FF4F3AC1D60F0E41A
:104220005F4615F8012C392A05F1FF3306D1059AAE
:104230009A4207D130231370013713461A7801329E
:104240001A708DE71D46ECE70022A44BFEF798FBA1
:104250000022002306460F4600F0D4FD00289AD025
:10426000CEE70B9A002A00F0CD80209A012A00F3B5
:10427000AF80129A002A00F0A78003F233430A9E0F
:10428000089D089A1A440892099A01211A44204666
:10429000099200F045FB0746002D0CDD099B002B21
:1042A00009DDAB42089AA8BF2B46D21A0892099A98
:1042B000ED1AD31A09930A9BF3B10B9B002B00F064
:1042C000A580002E10DD39463246204600F0BEFBA8
:1042D000524601460746204600F02BFB51468046D9
:1042E000204600F07DFAC2460A9B9A1B04D0514634
:1042F000204600F0ABFB82460121204600F010FB77
:104300000C9B002B064640F383801A46014620464C
:1043100000F09CFB209B012B06467CDD4FF0000843
:10432000336906EB8303186900F0ACFAC0F1200092
:10433000099B184410F01F0000F09680C0F1200384
:10434000042B40F38780089BC0F11C0003440893B2
:10435000099B054403440993089B002B05DD514646
:104360001A46204600F0C0FB8246099B002B05DD63
:1043700031461A46204600F0B7FB06460D9B002B3F
:1043800074D03146504600F000FC00286EDA00235D
:1043900051460A22204600F03AFA0B9B0BF1FF3BF4
:1043A0008246002B00F0A881002339460A222046CD
:1043B00000F02DFA079B002B074600F3C880209BD6
:1043C000022B40F3C48059E0149BC3F1360356E737
:1043D000069B5E1E0A9BB342BFBF0A9B0A96F21A57
:1043E0000C9BB6BF9B189E1B0C93069BB8BF002668
:1043F000002BB9BF089B069A089D069BBCBF9D1A5F
:1044000000233EE70A9E089D0B9F45E70A9A6EE748
:10441000209B012B19DC029BBBB9039BC3F3130345
:104420009BB9039B23F000431B0D1B0583B1089B25
:1044300001330893099B013309934FF001080C9B4A
:10444000002B7FF46DAF012072E74FF00008F6E714
:104450009846F4E780D0089A1C331A440892099AC7
:104460001A441D44134676E70346F4E7069B002BE7
:1044700036DC209B022B33DD069B0793079B63B939
:1044800031460522204600F0C2F901460646504654
:1044900000F07BFB00283FF7B6AD219B059D6FEA3E
:1044A000030B002306933146204600F099F9002FB4
:1044B0003FF4A6AE069B2BB1BB4203D01946204663
:1044C00000F08EF93946204600F08AF998E6002679
:1044D0003746E2E7BB46374695E500BF000024407B
:1044E0000B9B93BB069B0793059D31465046FFF7F8
:1044F000B5FA00F1300905F8019B059B079AEB1A04
:104500009A4200F3DC80059B012AACBF9B18013363
:1045100098460023069351460122204600F0E4FA13
:104520003146824600F031FB002800F38D8003D134
:1045300019F0010F40F08880454615F8013C302BFA
:1045400005F1FF32AFD11546F7E7069B0793002D23
:1045500005DD39462A46204600F0C6FA0746B8F17E
:10456000000F4CD07968204600F006F93A69023213
:104570000546920007F10C010C30FEF7D3FD012235
:104580002946204600F0B0FA029BDDF81480069719
:1045900003F001030746089331465046FFF75EFAE1
:1045A0000699054600F13009504600F0EEFA3A4609
:1045B00002903146204600F002FBC368024603BB6E
:1045C00001460990504600F0E0FA099A0346114668
:1045D0002046099300F004F9099BA3B9209A92B9E7
:1045E000089A82B9B9F1390F29D0029B002B01DD5D
:1045F00005F1310908F1010588F8009053E73846C4
:10460000C2E70123E3E7029A002A04DB25D1209ABE
:104610001ABB089A0ABB002BECDD5146012220464A
:1046200000F062FA3146824600F0AFFA002803DC5F
:10463000E0D119F0010FDDD0B9F1390FD8D139230C
:1046400088F8003008F10108454615F8013C392B7F
:1046500005F1FF323BD0013340E0002B08F10105AA
:1046600005DDB9F1390FEAD009F10109C4E7059B6D
:10467000079A05F8019CEB1A9342A8463FF44BAF0A
:10468000514600230A22204600F0C1F8069B0699F5
:10469000BB4282464FF000034FF00A02204604D18D
:1046A00000F0B5F80690074676E700F0B0F8002372
:1046B00006900A223946204600F0A9F8F3E7514651
:1046C00000230A22204600F0A2F882460DE7059B4F
:1046D000934205D1059A0BF1010B31231370E2E6E9
:1046E0001546B2E7094BFFF7A9BA249B002B7FF4CC
:1046F00083AA074BFFF7A2BA079B002B3FF7F4AE44
:10470000209B022B7FF7F0AEB8E600BF40510008B7
:1047100042510008044B1B68186A044B002808BF6C
:104720001846F030704700BFD0010020340200204E
:1047300038B5074C054608461146002222601A4645
:10474000FDF7D8FE431C02D1236803B12B6038BDAE
:104750005408002082B001B901A942B14BB11378CD
:104760000B601278101C18BF012002B07047104671
:10477000FBE76FF00100F8E770B5456A04460E46A6
:104780003DB91020FEF7C6FC60624560856005609B
:10479000C560656AEB6883B1636ADB6853F826001D
:1047A000B8B9012101FA06F56A1D92002046FDF70D
:1047B00003FE60B1466085600EE0212204212046A0
:1047C000FDF7FAFD636AE860DB68002BE4D10020A6
:1047D00070BD026843F8262000230361C36070BDEA
:1047E00070B5446A06460D463CB91020FEF792FCAF
:1047F0007062446084600460C4603DB1736A6A683A
:10480000DB6853F82210296043F8225070BD2DE96F
:10481000F0410D691F4606460C4601F1140E0023B7
:10482000DEF8000081B202FB01710F0C000C02FBEC
:10483000007089B2013301EB00419D424FEA1047FD
:104840004EF8041BECDCD7B1A3689D4212DB616813
:1048500030460131FFF790FF2269023204F10C016A
:10486000804692000C30FEF75DFC21463046FFF793
:10487000B7FF444604EB850301355F61256120469F
:10488000BDE8F081020C12040346B2B90304102003
:1048900013F07F4F04BF1B02083013F0704F04BFAA
:1048A0001B01043013F0404F04BF9B000230002B6B
:1048B00006DB5B0003D5013070470020E8E72020CD
:1048C0007047036813F0070201460BD0DA0723D4C0
:1048D000980749BF5B089B0801200B605CBF0B6019
:1048E0000220704798B2A8B91B0C102013F0FF0FDC
:1048F00004BF1B0A08301A0704BF1B0904309A07BB
:1049000004BF9B080230DA0702D45B0806D00130EE
:104910000B6070471046E9E7002070472020704781
:1049200010B50C460121FFF727FF01224461026107
:1049300010BD2DE9F74F14460A6923699A42B8BFA2
:104940000B468946BCBFA1461C46D9F81070D4F866
:1049500010A0D9F80830D9F8041007EB0A069E42D7
:10496000C8BF0131FFF708FF00F1140505EB860809
:104970002B460022434516D304F1140209F1140119
:1049800002EB8A0301EB87070193019C94421346D3
:104990000CD8002E03DD58F8043D002B54D00661DE
:1049A00003B0BDE8F08F43F8042BE3E7B3F800A0B1
:1049B0000432BAF1000F20D0AE4689464FF0000C09
:1049C00059F8044BBEF800B0A3B20AFB03B34FEA98
:1049D000144BDEF8004063444FEA144C0AFB0BC44E
:1049E00004EB13449BB243EA04434F454FEA144C93
:1049F0004EF8043BE4D8CEF800C032F8029CB9F17E
:104A0000000F1FD02B68AE468C464FF0000ABCF852
:104A10000040BEF802B009FB04B4A2449BB243EAD2
:104A20000A434EF8043B5CF8043BBEF800401B0C04
:104A300009FB034303EB1A4367454FEA134AE6D8E1
:104A4000CEF800300435A0E7013EA2E72DE9F84397
:104A5000154612F0030206460F4607D0013A214CD4
:104A6000002354F82220FFF7D2FE0746AD1035D0C0
:104A7000746A3CB91020FEF74DFB7062446084609C
:104A80000460C460D6F82480D8F808404CB940F2DD
:104A900071213046FFF744FF0023C8F808000446A0
:104AA00003604FF00008EB070AD53946224630462E
:104AB000FFF73FFF394681463046FFF791FE4F46EC
:104AC0006D100BD0206838B9224621463046FFF7DA
:104AD00030FF2060C0F800800446E4E73846BDE8B7
:104AE000F88300BF485200082DE9F0470C464FEA12
:104AF000621A236949680AEB0309A3680746164648
:104B000009F10105AB4231DB3846FFF735FE0022E3
:104B1000804600F11403114652452ADB20692AEA37
:104B2000EA7A04F1140116F01F0203EB8A0301EB89
:104B3000800E22D0C2F1200C00200E689640304337
:104B400043F8040B51F8040B8E4520FA0CF0F4D80E
:104B5000186008B109F10205013D3846C8F8105047
:104B60002146FFF73DFE4046BDE8F08701315B007E
:104B7000C8E743F822100132CEE7043B51F8042B7A
:104B800043F8042F8E45F9D8E6E703690A699B1AB2
:104B900030B50CD19200143014318418114454F8FB
:104BA000045D51F8042D954203D005D30123184626
:104BB00030BDA042F3D3FAE74FF0FF33F7E72DE91A
:104BC000F0470D460746114628461446FFF7DDFF1D
:104BD000061E08D131463846FFF7CEFD012303619A
:104BE0004661BDE8F087A4BF23462C46384661687D
:104BF000A6BF1D4600260126FFF7BEFD2B69C66035
:104C0000266905F1140904F1140202EB860709EB89
:104C1000830800F114054FF0000C52F804AB59F86A
:104C2000044B1CFA8AF1A3B2C91A230CC3EB1A4332
:104C300003EB214389B24FEA234CC84541EA0343C1
:104C4000964645F8043BE8D8BE4505D355F8043DE3
:104C50008BB10661BDE8F0875EF8041B1CFA81F396
:104C60001A1402EB11429BB243EA02434FEA224C70
:104C700045F8043BE8E7013EE8E72DE9F34101216F
:104C80001C46089E099D9046FFF776FDC4F313036A
:104C9000C4F30A54074634BB0193B8F1000F27D080
:104CA00002A840F8088DFFF70CFE0099F0B1019AB8
:104CB000C0F1200302FA03F30B43C2407B6101926F
:104CC000019BBB61002B14BF022101213961C4B1DA
:104CD000A4F2334404443460C0F1350028603846FF
:104CE00002B0BDE8F08143F48013D5E77961E7E7CE
:104CF00001A8FFF7E6FD019B7B61012139612030AE
:104D0000E5E707EB8103A0F2324030601869FFF756
:104D1000B9FDC0EB4110E1E738B5074C0546084640
:104D20001146002222601A46FDF7B4FB431C02D153
:104D3000236803B12B6038BD5408002049B1FF2A15
:104D400085BF8A2303600A704FF0FF3098BF0120AF
:104D500070470846704700004FF0FF3C06E000BF78
:104D60004FF0010C02E000BF4FF0010C4DF804CDF4
:104D70004FEA410C7FEA6C5C4FEA430C18BF7FEAB4
:104D80006C5C1BD001B050EA410C0CBF52EA430CE2
:104D900091EA030F02BF90EA020F0020704710F162
:104DA000000F91EA030F58BF994208BF90422CBFF1
:104DB000D8176FEAE37040F0010070474FEA410CEA
:104DC0007FEA6C5C02D150EA013C07D14FEA430C08
:104DD0007FEA6C5CD6D152EA033CD3D05DF8040B79
:104DE000704700BF8446104662468C4619466346AB
:104DF00000E000BF01B5FFF7B7FF002848BF10F182
:104E0000000F01BD4DF808EDFFF7F4FF0CBF0120C6
:104E100000205DF808FB00BF4DF808EDFFF7EAFF42
:104E200034BF012000205DF808FB00BF4DF808EDFD
:104E3000FFF7E0FF94BF012000205DF808FB00BFF2
:104E40004DF808EDFFF7CEFF94BF012000205DF87C
:104E500008FB00BF4DF808EDFFF7C4FF34BF012089
:104E600000205DF808FB00BF4FEA410C7FEA6C5C54
:104E700002D150EA013C0AD14FEA430C7FEA6C5C54
:104E800002D152EA033C02D14FF0000070474FF0CC
:104E9000010070474FEA410212F5001215D211D5F8
:104EA0006FF47873B3EB625212D94FEAC12343F027
:104EB000004343EA505311F0004F23FA02F018BFA9
:104EC000404270474FF00000704750EA013005D172
:104ED00011F0004008BF6FF0004070474FF0000035
:104EE000704700BFF8B500BFF8BC08BC9E467047CD
:104EF000F8B500BFF8BC08BC9E467047044F0008D8
:104F0000EC030020A1080008C5080008FD080008FF
:104F100015090008E108000870696E6D6170206D68
:104F200069732D6D617463680070696E6D617020C6
:104F30006E6F7420666F756E6420666F7220706588
:104F4000726970686572616C00636F756C64206E65
:104F50006F742070696E6F75740050696E6D61704A
:104F6000206572726F723A2077726F6E6720706F71
:104F70007274206E756D6265722E00000100000073
:104F80000200000004000000080000001000000003
:104F90002000000040000000800000000001000030
:104FA00000020000000400000008000000100000E3
:104FB00000200000004000000080000043616E6E91
:104FC0006F7420696E697469616C697A65205541F6
:104FD00052540A0001000000004C0040120800007A
:104FE0000300000000440040120700000A00000017
:104FF00000100140120700001700000000100140DF
:1050000012070000250000000048004012070000C1
:105010002700000000140140120800002B000000CF
:10502000004800401207000032000000005000401D
:1050300012080000FFFF0000FFFFFFFF000000005C
:1050400000000000004C00401208000002000000B8
:105050000044004012070000090000000010014059
:1050600012070000160000000010014012070000A7
:105070001A0000000048004012070000260000004F
:1050800000140140120800002A00000000480040FF
:10509000120700002C000000005000401208000021
:1050A000FFFF0000FFFFFFFF000000000000000006
:1050B00000000000010203040607080900000000C8
:1050C00001020304010203040607080900000000AE
:1050D00000000000000000000000000000000000D0
:1050E00000000000000000000000000000000000C0
:1050F00000000000000000000000000000000000B0
:10510000000000000000000000000000000000009F
:10511000000000000000000000000000000000008F
:10512000000000000000000000000000D40100208A
:10513000494E4600696E66004E414E006E616E003B
:105140003000496E66696E697479004E614E0043A5
:1051500000504F53495800000080E03779C3414365
:10516000176E05B5B5B89346F5F93FE9034F384DCD
:10517000321D30F94877825A3CBF737FDD4F157579
:10518000000000000000F03F00000000000024408C
:1051900000000000000059400000000000408F4067
:1051A000000000000088C34000000000006AF840D2
:1051B0000000000080842E4100000000D0126341F6
:1051C0000000000084D797410000000065CDCD416C
:1051D000000000205FA00242000000E8764837424D
:1051E000000000A2941A6D42000040E59C30A242EB
:1051F0000000901EC4BCD64200003426F56B0C4360
:105200000080E03779C3414300A0D8855734764306
:1052100000C84E676DC1AB43003D9160E458E14367
:10522000408CB5781DAF154450EFE2D6E41A4B44DC
:1052300092D54D06CFF08044F64AE1C7022DB54421
:10524000B49DD9794378EA440500000019000000B4
:105250007D00000000202020202020202020282861
:105260002828282020202020202020202020202026
:105270002020202020881010101010101010101066
:105280001010101010040404040404040404041096
:105290001010101010104141414141410101010124
:1052A00001010101010101010101010101010101EE
:1052B00010101010101042424242424202020202FA
:1052C00002020202020202020202020202020202BE
:1052D000101010102000000000000000000000006E
:1052E00000000000000000000000000000000000BE
:1052F00000000000000000000000000000000000AE
:10530000000000000000000000000000000000009D
:10531000000000000000000000000000000000008D
:10532000000000000000000000000000000000007D
:10533000000000000000000000000000000000006D
:10534000000000000000000000000000000000005D
:0C53500000000000000000000000000051
:10535C00000000000024F40058080020D4010020B4
:10536C0000000000EC5000080C510008CC50000864
:10537C000000000000000000000000000000000021
:10538C000000000000000000000000000000000011
:10539C000000000000000000000000000000000001
:1053AC0000000000000000000000000000000000F1
:1053BC0000000000000000000000000000000000E1
:1053CC00430000000000000000000000000000008E
:1053DC0000000000000000000000000000000000C1
:1053EC00430000000000000000000000000000006E
:1053FC0000000000000000000000000000000000A1
:10540C00430000000000000000000000000000004D
:10541C000000000000000000000000000000000080
:10542C00430000000000000000000000000000002D
:10543C000000000000000000000000000000000060
:10544C00430000000000000000000000000000000D
:10545C000000000000000000000000000000000040
:10546C0043000000000000000000000000000000ED
:10547C000000000000000000000000000000000020
:10548C0043000000000000000000000000000000CD
:10549C000000000000000000000000000000000000
:1054AC003D4D00085547000800000000545200080C
:1054BC00794F0008D34F0008D34F0008D34F000892
:1054CC00D34F0008D34F0008D34F0008D34F000828
:1054DC00D34F0008D34F0008FFFFFFFFFFFFFFFF74
:1054EC00FFFFFFFFFFFF000001004153434949004C
:1054FC0000000000000000000000000000000000A0
:10550C000000000000000000000041534349490026
:10551C00000000000000000000000000000000007F
:10552C00000000000000000000000000E90100087D
:10553C005902000869230008C5010008000000009A
:04000005080025D9F1
:00000001FF
